:0300000002156086
:0C156000787FE4F6D8FD758107021512B3
:10151200120EAA1213F712120F1213F71210E81278
:0415220009DB80F56C
:1010E800E4904001F0904001E0FDC39408748094BE
:1010F80080400302117BE4FF12138DE4904000F05E
:10110800904000E0C3948074809480505D12156C08
:101118007F781214351215317F40121435121531AB
:10112800C2C7E4FDEDC3940874809480502E9040AB
:1011380000E07F00FEEF2400F58274003EF5837521
:10114800F002ED120D9AE0FEA3E064014E7004D2A5
:10115800C68002C2C6D2C7C2C70D80C812153112D6
:101168001575904000E004F08096904001E004F08E
:031178000210ED75
:01117B002251
:10120F00E4904000F0A3F0E4904002F0A3F012123B
:10121F00F77C007D02120D4E904003E025E0FB901D
:10122F004002E033FA904001E07F00FEEF2400F52A
:10123F008274003EF583E5822BF582E5833AF583D0
:10124F00ECF0A3EDF0904003E004F0700690400244
:10125F00E004F0C3904003E09480904002E064808B
:10126F00948040AA904001E004F07006904000E0A6
:10127F0004F0C3904001E09440904000E0648094FB
:03128F0080408418
:011292002239
:1009DB00906000E4F0A304F0E4906002F0A3F090C8
:1009EB006002E0FCA3E0FD25E0FBEC33FA90600134
:1009FB00E07F00FEEF2400F58274FF3EF583E58275
:100A0B002BF582E5833AF583E0FAA3E0FBED25E0D5
:100A1B00FDEC33FCEF24FEF58274FE3EF583E5829C
:100A2B002DF582E5833CF583E0FEA3E02BFBEE3A4C
:100A3B00FA906001E0FEEF2402F58274FF3EF5832D
:100A4B00E5822DF582E5833CF583E0FEA3E02BFBED
:100A5B00EE3AFA906001E0FEEF24FEF58274FF3E61
:100A6B00F583E5822DF582E5833CF583E0FEA3E07B
:100A7B002BFBEE3AFA906001E0FEEF2402F5827454
:100A8B00003EF583E5822DF582E5833CF583E0FEA0
:100A9B00A3E02BFBEE3AFA906001E0FEEF24FEF5AB
:100AAB008274003EF583E5822DF582E5833CF58368
:100ABB00E0FEA3E02BFBEE3AFA906001E0FEEF24A0
:100ACB0000F58274013EF583E5822DF582E5833CCA
:100ADB00F583E0FEA3E02BFBEE3AFA906001E0FE1B
:100AEB00EF2402F58274013EF583E5822DF582E554
:100AFB00833CF583E0FEA3E02BFFEE3AFEEF6403AD
:100B0B004E7037906000E0FEA3E07807C333CE331E
:100B1B00CED8F92400F58274403EF583C083C082A1
:100B2B00906002E0FEA3E0D082D0832582F582E5BF
:100B3B00833EF5837401F0020BDEEF64024E7060AE
:100B4B00906003E025E0FD906002E033FC906000D4
:100B5B00E0FAA3E0FB7F00FEEF2400F58274003E79
:100B6B00F583E5822DF582E5833CF583A3E0FDAEAD
:100B7B0002EB7807C333CE33CED8F92400F5827459
:100B8B00403EF583C083C082906002E0FEA3E0D0BC
:100B9B0082D0832582F582E5833EF583EDF08033A9
:100BAB00906000E0FEA3E07807C333CE33CED8F9D4
:100BBB002400F58274403EF583C083C082906002AE
:100BCB00E0FEA3E0D082D0832582F582E5833EF55B
:100BDB0083E4F0906003E004F07006906002E004A0
:100BEB00F0906002E07004A3E0648060030209EA05
:100BFB00906001E004F07006906000E004F09060FB
:100C0B0000E07004A3E0644060030209E39060001D
:100C1B00E4F0A304F0E4906002F0A3F0906000E035
:100C2B00FEA3E07807C333CE33CED8F92400F58288
:100C3B0074403EF583C083C082906002E0FEA3E067
:100C4B00FFD082D0832582F582E5833EF583E0FDDC
:100C5B00EF25E0FBEE33FA906001E07F00FEEF241E
:100C6B0000F58274003EF583E5822BF582E5833A2D
:100C7B00F583E4F0A3EDF0906003E004F0700690D0
:100C8B006002E004F0906002E07004A3E064807006
:100C9B008B906001E004F07006906000E004F0902F
:0E0CAB006000E07004A3E064406003020C20CF
:010CB9002218
:100003000000000000000000002F000000000700B7
:10001300070000147F147F1400242A7F2A12006231
:1000230064081323003649552250000005030000DD
:1000330000001C224100000041221C000014083E65
:1000430008140008083E0808000000A0600000082B
:10005300080808080000606000000020100804027F
:10006300003E5149453E0000427F4000004261513D
:100073004946002141454B31001814127F100027D7
:1000830045454539003C4A4949300001710905039A
:1000930000364949493600064949291E00003636CB
:1000A300000000005636000000081422410000142E
:1000B300141414140000412214080002015109060B
:1000C30000324959513E007C1211127C007F49498C
:1000D3004936003E41414122007F4141221C007FBD
:1000E30049494941007F09090901003E4149497ACB
:1000F300007F0808087F0000417F41000020404145
:100103003F01007F08142241007F40404040007FB0
:10011300020C027F007F0408107F003E4141413EF4
:10012300007F09090906003E4151215E007F09193C
:1001330029460046494949310001017F0101003F39
:100143004040403F001F2040201F003F4038403FB9
:10015300006314081463000708700807006151491D
:10016300454300007F41410000552A552A550000B0
:1001730041417F000004020102040040404040402E
:10018300000001020400002054545478007F4844C6
:10019300443800384444442000384444487F0038FD
:1001A3005454541800087E0901020018A4A4A47C26
:1001B300007F080404780000447D400000408084F0
:1001C3007D00007F102844000000417F4000007C38
:1001D30004180478007C0804047800384444443844
:1001E30000FC242424180018242418FC007C080490
:1001F300040800485454542000043F444020003C69
:100203004040207C001C2040201C003C4030403CEF
:10021300004428102844001CA0A0A07C004464547F
:100223004C441414141414140000000000000000C3
:100233000000000000000000000000F800000000C3
:10024300000000333000000000100C06100C060004
:10025300000000000000000040C07840C07840006B
:10026300043F04043F040400007088FC08300000CD
:10027300001820FF211E0000F008F000E018000025
:1002830000211C031E211E0000F0088870000000DE
:100293001E2123241927211010160E000000000030
:1002A3000000000000000000000000E0180402004D
:1002B300000000071820400000020418E0000000BE
:1002C3000040201807000000404080F080404000BC
:1002D3000202010F01020200000000F00000000012
:1002E3000101011F010101000000000000000000E6
:1002F30080B070000000000000000000000000005B
:1003030000010101010101010000000000000000E3
:10031300003030000000000000000000806018047E
:10032300006018060100000000E010080810E0005B
:10033300000F102020100F00001010F80000000024
:100343000020203F2020000000700808088870006B
:1003530000302824222130000030088888483000EB
:100363000018202020110E000000C02010F800000B
:1003730000070424243F240000F8088888080800A4
:100383000019212020110E0000E0108888180000B9
:10039300000F112020110E0000380808C83808008B
:1003A3000000003F0000000000708808088870000B
:1003B300001C222121221C0000E010080810E0008C
:1003C3000000312222110F00000000C0C000000015
:1003D300000000303000000000000080000000003A
:1003E3000000806000000000000080402010080032
:1003F30000010204081020004040404040404000FB
:1004030004040404040404000008102040800000D5
:100413000020100804020100007048080808F000DA
:100423000000003036010000C030C828E810E000AA
:100433000718272423140B000000C038E000000035
:10044300203C23020227382008F88888887000009F
:10045300203F202020110E00C03008080808380073
:10046300071820202010080008F808080810E000EA
:10047300203F202020100F0008F88888E80810008B
:10048300203F20202320180008F88888E80810005F
:10049300203F200003000000C03008080838000097
:1004A30007182020221E020008F808000008F80898
:1004B300203F210101213F20000808F8080800001F
:1004C3000020203F2020000000000808F808080052
:1004D300C08080807F00000008F888C028180800CA
:1004E300203F20012638200008F808000000000003
:1004F300203F20202020300008F8F800F8F80800FA
:10050300203F003F003F200008F830C00008F808F3
:10051300203F200007183F00E01008080810E00003
:100523000F10202020100F0008F808080808F0001A
:10053300203F210101010000E01008080810E0003D
:100543000F18242438504F0008F8888888887000D2
:10055300203F2000030C3020007088080808380072
:100563000038202121221C00180808F80808180068
:100573000000203F2000000008F808000008F808E9
:10058300001F202020201F000878880000C838089A
:10059300000007380E010000F80800F80008F80012
:1005A300033C0700073C03000818688080681808AC
:1005B30020302C03032C30200838C800C83808002A
:1005C3000000203F2000000010080808C838080079
:1005D3002038262120201800000000FE020202001D
:1005E3000000007F40404000000C30C000000000CD
:1005F300000000010638C00000020202FE000000F5
:10060300004040407F00000000000402020204009A
:1006130000000000000000000000000000000000D7
:1006230080808080808080800002020400000000BF
:1006330000000000000000000000808080800000B7
:100643000019242222223F2008F8008080000000A5
:10065300003F112020110E00000000808080000068
:10066300000E112020201100000000808088F80077
:10067300000E112020103F200000808080800000A9
:10068300001F222222221300008080F0888888180D
:100693000020203F20200000000080808080800018
:1006A300006B94949493600008F8008080800000AD
:1006B300203F210000203F20008098980000000088
:1006C3000020203F202000000000008098980000B8
:1006D30000C08080807F000008F8000080808000D8
:1006E300203F24022D302000000808F800000000FD
:1006F3000020203F202000008080808080808000B8
:10070300203F20003F20003F808000808080000049
:10071300203F210000203F200000808080800000D7
:10072300001F202020201F00808000808000000008
:1007330080FFA12020110E00000000808080800037
:10074300000E112020A0FF80808080008080800028
:1007530020203F2120000100000080808080800055
:100763000033242424241900008080E080800000CA
:100773000000001F20200000808000000080800017
:10078300001F202020103F20808080000080808078
:1007930000010E3008060100808000800080808008
:1007A3000F300C030C300F0000808000808080002D
:1007B3000020312E0E312000808080000080808058
:1007C30080818E7018060100008080808080800008
:1007D3000021302C2221300000000000807C020226
:1007E30000000000003F404000000000FF00000048
:1007F30000000000FF0000000002027C80000000F7
:100803000040403F00000000000601010202040412
:1008130000000000000000000000F010101010FFA6
:1008230010101010F0000000000000000000000095
:10083300000000000000000000000F04040404FF97
:10084300040404040F000000000000000000000086
:1008530000000000000000004040405F5555557502
:100863005555555F40404000000000000000000067
:1008730000000000000000000040200F09498979B2
:100883000909090F204000000000000000000000DB
:10089300000000000000000000FE02424ACA4A4A6B
:1008A300CA4A4A4202FE00000000000000000000A5
:1008B300000000000000000000FF40504C43404097
:1008C3004F50505C40FF000000000000000000009B
:1008D30000000000000000000000F888888888FFFE
:1008E30088888888F80000000000000000000000ED
:1008F300000000000000000000001F080808087F37
:10090300888888889F80F0000000000000000000B5
:10091300000000000000000080828282828282E266
:10092300A2928A86828080000000000000000000FE
:100933000000000000000000000000000040807F75
:1009430000000000000000000000000000000000A4
:1009530000000000000000002424A4FEA3220022C3
:10096300CC0000FF000000000000000000000000B9
:100973000000000000000000080601FF000104045D
:10098300040404FF02020200000000000000000053
:100993000000000000000000101010FF10900888F5
:1009A3008888FF8888880800000000000000000095
:1009B30000000000000000000444827F01808040AA
:1009C300432C102846818000000000000000000036
:0809D30000000000000000001C
:1014C700EF4E60157D087C07ED1DAA0470011C4ACC
:0914D70070F6EF1F70EA1E80E7B9
:0114E00022E9
:09156C00D2C7D2C6C2C6C2C72212
:07157500D2C7C2C6D2C62294
:0B152600121435121531AF04121435F9
:05153100D2C7C2C72271
:07142E00AC0712156C7F787A
:10143500C2C7E4FEEEC3940874809480501AAD07C9
:10144500ED548064807004D2C68002C2C6EF25E0E8
:08145500FFD2C7C2C70E80DC04
:01145D00226C
:0E15360012142E121531E4FF1215260215753F
:0E15440012142E1215317F4012152602157555
:10145E00EF24B0FFEE33FEE4FDFC12147A7F02E4BB
:0C146E00FDFCFE12147A7F10E4FDFCFE71
:10147A00AB07AA06ED4C6003021544AF03121536FA
:01148A00223F
:0513440090602CEFF0A9
:10134900E4F9E9FF7E00C3940874809480502C125C
:10135900145EE490602DF090602DE0C39480748059
:101369009480501490602CE0FF7E007D017C001277
:0B137900147AA3E004F080DF0980C7B5
:011384002246
:10148B00D3EF9400EE940040147D657C18ED1D7035
:0D149B00011CED4C70F7EF1F70E61E80E3A2
:0114A8002221
:1014E100EF1FAA0670011E4A600FE4FDEDC3947B55
:0914F1007480948050EA0D80F330
:0114FA0022CF
:0813850090601FE0FFA3E0FDF2
:10138D00A907ED24B0FFE433FEE4FDFC12147AE965
:10139D00240254F0C4540F7E004410FFE4FDFC12EF
:1013AD00147AE92402FF7E00EF540FFFE4FDFC02E6
:0213BD00147AA0
:1014FB007F8D121476E4FDFC7F14FE12147AE4FD4A
:07150B00FC7FAFFE02147A21
:0E1552007F8D12146DE4FDFC7FAEFE02147A54
:1013F700E4F9E9FF7E00C3940874809480502712B3
:10140700145EE4904000F0904000E0C39480748044
:101417009480500F7D017C00E4FFFE12147AE004F3
:06142700F080E40980CC16
:01142D00229C
:1013BF00E4F9E9FF7E00C3940874809480502812EA
:1013CF00145EE490602EF090602EE0C394807480E1
:1013DF00948050107D017C007F017E0012147AE012
:0713EF0004F080E30980CB4C
:0113F60022D4
:0B0DBE00906020EDF090601FEFF0FD52
:100DC900E4906023F0F9EB24E0F0EDD3947F748094
:100DD9009480400AE490601FF0A3E02402F0906040
:100DE90022E064106003020E6F121385E4F9E9C36F
:100DF900940874809480502B906023E075F010A4BF
:100E090029F582E435F0F583E582242BF582E58323
:100E19003402F583E493FF7E007D017C0012147A8D
:100E29000980CB90601FE0FFA3E004FD12138DE45D
:100E3900F9E9C39408748094805065906023E07543
:100E4900F010A429F582E435F0F583E5822433F521
:100E590082E5833402F583E493FF7E007D017C0003
:100E690012147A0980CB121385E4F9E9C394067444
:100E7900809480502B906023E075F006A42403F53C
:100E890082E5F03400F583E58229F582E43583F5BE
:100E990083E493FF7E007D017C0012147A0980CBE4
:010EA9002226
:0714A90090602FEFF0A90590
:1014B0007F017E00AD0119ED600C90602FE0FD7C96
:0614C00000120CE780EEB3
:0114C6002203
:0E0F910090600FEFF0A3EDF0A3EAF0A3EBF0F9
:100F9F00E4906017F0906015F0906013E0FF9060A0
:100FAF0015E0FEC39F400302104BC3EF9E14FD7F5D
:100FBF000A1214A9906011E0FCA3E0FDCFCDCFCEB3
:100FCF00CCCE120CF97C007D0A120CF9906016ED54
:100FDF00F0A3E07036906013E014FF906015E0FE10
:100FEF00C39F5027A3E0701D906014E0FCC3138EC5
:100FFF00F0A4FF90600FE02FFFA3E0FD906022ECC4
:10100F00F07B20802B9060177401F0906014E0FE4D
:10101F00C313FFA3E0FDEF8DF0A4FF90600FE02F4F
:10102F00FFA3E0FD906016E02430FB906022EEF00D
:0C103F00120DBE906015E004F0020FA836
:01104B002282
:10129300906018EFF0A3EDF0A3EBF0A3EAF0A3E95D
:0112A300F05A
:1012A400E490601EF090601AE0FBA3E0FAA3E0F97A
:1012B40090601EE0F582758300120CBAFB603390D7
:1012C4006018E0FFA3E0FD90601DE0906022F01242
:1012D4000DBE906018E02408F0E0D39478748094F4
:1012E400804007E4F0A3E02402F090601EE004F0E4
:0212F40080B3C5
:0112F60022D5
:0D104C00906026EBF0906024EFF0A3EDF033
:10105900E4906027F012138DE4F9E9C394107480C9
:1010690094805031906026E075F040A4241BF582ED
:10107900E5F03408F583E58229F582E43583F583C3
:10108900E493FF7E007D017C0012147A906027E0D2
:1010990004F00980C5906024E0FFA3E004FD121369
:1010A9008DE4F9E9C39410748094805031906026DE
:1010B900E075F040A4243BF582E5F03408F583E5BA
:1010C9008229F582E43583F583E493FF7E007D016F
:0E10D9007C0012147A906027E004F00980C5B4
:0110E70022E6
:0A117C00906004EFF0906006EBF0C5
:10118600E490600BF0A3F0906007E0FF540770084E
:10119600EF131313541F800A906007E013131354C0
:1011A6001F0490600EF090600EEDF0906007E0FF77
:1011B60090600EE0FDC39F504F906004E0FF121355
:1011C6008DE090600DF0906006E0FF90600DE0C34A
:1011D6009F502D906008E0FBA3E0FAA3E0F9A3E49A
:1011E60075F001120D8485F082F583120CBAFF7E2C
:1011F600007D017C0012147A90600DE004F080C638
:0812060090600EE004F080A3EB
:01120E0022BD
:100EAA00E4FDFC7FAEFE12147AE4FDFCFF1214701E
:100EBA00E4FDFC7F40FE12147AE4FDFC7FB0FE12D2
:100ECA00147AE4FDFC7F81FE12147AE4FDFC7FFFB4
:100EDA00FE12147AE4FDFC7FA1FE12147AE4FDFCF2
:100EEA007FA6FE12147AE4FDFC7FA8FE12147AE4AF
:100EFA00FDFC7F3FFE12147AE4FDFC7FC8FE12144B
:100F0A007AE4FDFC7FD3FE12147AE4FDFCFFFE12A4
:100F1A00147AE4FDFC7FD5FE12147AE4FDFC7F808E
:100F2A00FE12147AE4FDFC7FD8FE12147AE4FDFC6A
:100F3A007F05FE12147AE4FDFC7FD9FE12147AE4CE
:100F4A00FDFC7FF1FE12147AE4FDFC7FDAFE121436
:100F5A007AE4FDFC7F12FE12147AE4FDFC7FDBFECC
:100F6A0012147AE4FDFC7F30FE12147AE4FDFC7F51
:100F7A008DFE12147AE4FDFC7F14FE12147AE4FD4D
:070F8A00FC7FAFFE02147AA8
:100CBA00BB010CE58229F582E5833AF583E02250EF
:100CCA0006E92582F8E622BBFE06E92582F8E22239
:0D0CDA00E58229F582E5833AF583E4932253
:100CE700EF8DF0A4A8F0CF8CF0A428CE8DF0A42E21
:020CF700FE22DB
:100CF900BC000BBE0029EF8DF084FFADF022E4CCDF
:100D0900F875F008EF2FFFEE33FEEC33FCEE9DECA7
:100D1900984005FCEE9DFE0FD5F0E9E4CEFD22EDED
:100D2900F8F5F0EE8420D21CFEADF075F008EF2F37
:100D3900FFED33FD4007985006D5F0F222C398FD28
:050D49000FD5F0EA22C5
:100D4E00C2D5EC30E709B2D5E4C39DFDE49CFCEEC0
:100D5E0030E715B2D5E4C39FFFE49EFE120CF9C333
:100D6E00E49DFDE49CFC8003120CF930D507C3E42E
:060D7E009FFFE49EFE222F
:100D8400C5F0F8A3E028F0C5F0F8E58215827002FA
:060D94001583E038F02297
:0C0D9A00A42582F582E5F03583F5832264
:1012F700906028120DA67810EC4D4E4F70047CA517
:101307007DA5C3EC13FCED13FDEE13FEEF13FF50A9
:1013170010EC64CCFCED644CFDEE644EFEEF64CE45
:10132700FFD8DF906028120DB2EE547FFE22906046
:0D13370028EEF0EFA3F0A374A5F0A3F022C0
:0C0DA600E0FCA3E0FDA3E0FEA3E0FF22C0
:0C0DB200ECF0A3EDF0A3EEF0A3EFF022B4
:00000001FF
