:030000000205AD49
:0C05AD00787FE4F6D8FD7581070205F4A4
:0409BB0041001600E1
:100731007F031209A1900016EFF012040512083888
:100741001206BFE4FDFF1202ECE4FD7F0312086F05
:100751001209AB7F781208A81209727F401208A80B
:10076100120972C2B7E4FFEFC394087480948050F9
:1007710009D2B6D2B7C2B70F80ED1209721209B40D
:100781007FFF1208A87F647E0012091C12083880BE
:01079100EF78
:1006BF00E4FFFEE4FDFCED4C6010EF4E600CEF64C8
:1006CF00024E6006ED64024C702190000D75F00330
:1006DF00EF120534EE75F003A42583F583E5822D23
:1006EF00F582E5833CF583E4F0802090000D75F0F2
:1006FF0003EF120534EE75F003A42583F583E5822D
:10070F002DF582E5833CF5837401F00DBD00010CDE
:10071F00ED64034C70A00FBF00010EEF64034E7029
:01072F009237
:0107300022A6
:0A09A100EF54077002FF227F0122CD
:0802EC00900017EFF0A3EDF004
:1002F400E490001BF0A3F0900016E0FF3395E0FEBD
:1003040090001BE0FCA3E0FDC39FEE6480F8EC6466
:10031400809840028104900017E0FFAE05A3E02E10
:10032400FD12086FE4900019F0A3F01209AB7F7876
:100334001208A81209727F401208A8120972C2B7E3
:10034400E4FDFC90001BE0FEA3E07803C333CE334E
:10035400CED8F92407FFE43EFEC3EF9DFFEE9CFEDA
:10036400C3EF9403EE64809480504B90001BE0FE36
:10037400A3E07803C333CE33CED8F9C39DFFEE9CFC
:10038400FE900019E0FAA3E090001475F003120542
:1003940034EA75F003A42583F583E5822FF582E51D
:1003A400833EF583E0FF3395E0FEEF4E7004D2B652
:1003B4008006C2B68002C2B6D2B7C2B70DBD000174
:1003C4000CED64084C600261471209721209B49082
:1003D400001AE004F07006900019E004F0C39000E5
:1003E4001AE09403900019E0648094805002612F15
:1003F40090001CE004F0700690001BE004F041FB48
:0104040022D5
:10063900E490001DF0A3F0E490001FF0A3F012076E
:10064900927C007D021204FEAF0590001FE0FCA31E
:10065900E0FD90001DE0FAA3E090000D75F0031293
:100669000534EA75F003A42583F583E5822DF58227
:10067900E5833CF583EFF0900020E004F0700690EC
:10068900001FE004F0C3900020E0940390001FE0F5
:100699006480948040A890001EE004F070069000E9
:1006A9001DE004F0C390001EE0940390001DE06477
:0506B9008094804082E6
:0106BE002219
:100003007F017E00E490000BF0A3F090000BE0FC76
:10001300A3E0FD90000A75F003EF120534EE75F0CE
:1000230003A42583F583E5822DF582E5833CF583DF
:10003300E0FD3395E0FC90000BE0FAA3E0FB9000B9
:100043000975F003EF120534EE75F003A42583F56B
:1000530083E5822BF582E5833AF583E0FB3395E074
:10006300FAEB2DFDEA3CFC90000BE0FAA3E0FB90D9
:10007300000B75F003EF120534EE75F003A425832E
:10008300F583E5822BF582E5833AF583E0FB33952F
:10009300E0FAED2BFDEC3AFC90000BE0FAA3E0FB59
:1000A30090000C75F003EF120534EE75F003A425F0
:1000B30083F583E5822BF582E5833AF583E0FB3311
:1000C30095E0FAED2BFDEC3AFC90000BE0FAA3E08F
:1000D300FB90000E75F003EF120534EE75F003A4E8
:1000E3002583F583E5822BF582E5833AF583E0FBEF
:1000F3003395E0FAED2BFDEC3AFC90000BE0FAA30C
:10010300E0FB90000F75F003EF120534EE75F0037A
:10011300A42583F583E5822BF582E5833AF583E015
:10012300FB3395E0FAED2BFDEC3AFC90000BE0FA83
:10013300A3E0FB90001075F003EF120534EE75F0A9
:1001430003A42583F583E5822BF582E5833AF583C2
:10015300E0FB3395E0FAED2BFDEC3AFC90000BE06D
:10016300FAA3E0FB90001175F003EF120534EE756E
:10017300F003A42583F583E5822BF582E5833AF525
:1001830083E0FB3395E0FAED2BFDEC3AFC9000099C
:10019300F0A3EDF064034C7028A3E0FCA3E0FD9012
:1001A300000075F003EF120534EE75F003A4258308
:1001B300F583E5822DF582E5833CF5837401F041F7
:1001C30044900009E07004A3E0640290000B704DBA
:1001D300E0FCA3E0FD90000D75F003EF120534EE93
:1001E30075F003A42583F583E5822DF582E5833C31
:1001F300F583E0FD90000BE0FAA3E0FB90000075AF
:10020300F003EF120534EE75F003A42583F583E5BF
:10021300822BF582E5833AF583EDF08024E0FCA39D
:10022300E0FD90000075F003EF120534EE75F00366
:10023300A42583F583E5822DF582E5833CF583E4EC
:10024300F090000CE004F0700690000BE004F090D6
:10025300000BE07004A3E064036002010E0FBF0013
:10026300010EEF64034E600201077E007F01E490FC
:10027300000BF0A3F090000BE0FCA3E0FDC394039C
:10028300EC64809480505690000075F003EF1205E3
:1002930034EE75F003A42583F583E5822DF582E51D
:1002A300833CF583E0FD90000BE0FAA3E0FB9000B4
:1002B3000D75F003EF120534EE75F003A42583F5F5
:1002C30083E5822BF582E5833AF583EDF090000C0C
:1002D300E004F070A090000BE004F080980FBF00E2
:0802E300010EEF64034E70866A
:0102EB0022F0
:10091C00EF4E60157D087C07ED1DAA0470011C4A82
:09092C0070F6EF1F70EA1E80E76F
:01093500229F
:0909AB00D2B7D2B6C2B6C2B7221F
:0709B400D2B7C2B6D2B62291
:0B0967001208A8120972AF041208A8C1
:05097200D2B7C2B7225C
:0708A100AC071209AB7F78E0
:1008A800C2B7E4FEEEC3940874809480501AAD0772
:1008B800ED548064807004D2B68002C2B6EF25E0A1
:0808C800FFD2B7C2B70E80DCBD
:0108D0002205
:0E0977001208A1120972E4FF1209670209B406
:0E0985001208A11209727F401209670209B41C
:1008D100EF24B0FFEE33FEE4FDFC1208ED7F02E4ED
:0C08E100FDFCFE1208ED7F10E4FDFCFEA3
:1008ED00AB07AA06ED4C6003020985AF0312097729
:0108FD0022D8
:1007DF00D3EF9400EE940040147D657C18ED1D70EE
:0D07EF00011CED4C70F7EF1F70E61E80E35B
:0107FC0022DA
:10093600EF1FAA0670011E4A600FE4FDEDC3947B0B
:090946007480948050EA0D80F3E6
:01094F002285
:10086F00A907ED24B0FFE433FEE4FDFC1208EDE927
:10087F00240254F0C4540F7E004410FFE4FDFC1218
:10088F0008EDE92402FF7E00EF540FFFE4FDFC02A8
:02089F0008ED62
:100950007F8D1208E9E4FDFC7F14FE1208EDE4FD32
:07096000FC7FAFFE0208ED71
:0E0993007F8D1208E0E4FDFC7FAEFE0208ED51
:10083800E4F9E9FF7E00C39408748094805027127D
:1008480008D1E4900017F0900017E0C394807480FA
:100858009480500F7D017C00E4FFFE1208EDE00457
:06086800F080E40980CCE1
:01086E002267
:10080000E4F9E9FF7E00C3940874809480502812B4
:1008100008D1E4900025F0900025E0C39480748016
:10082000948050107D017C007F017E001208EDE075
:0708300004F080E30980CB16
:01083700229E
:0708FE00900026EFF0A905B0
:100905007F017E00AD0119ED600C900026E0FD7CB5
:06091500001204EC80EE6C
:01091B0022B9
:10040500E4FDFC7FAEFE1208EDE4FDFCFF1208E3FF
:10041500E4FDFC7F40FE1208EDE4FDFC7FB0FE121A
:1004250008EDE4FDFC7F81FE1208EDE4FDFC7FFF95
:10043500FE1208EDE4FDFC7FA1FE1208EDE4FDFCD3
:100445007FA6FE1208EDE4FDFC7FA8FE1208EDE490
:10045500FDFC7F3FFE1208EDE4FDFC7FC8FE12089F
:10046500EDE4FDFC7FD3FE1208EDE4FDFCFFFE127A
:1004750008EDE4FDFC7FD5FE1208EDE4FDFC7F8070
:10048500FE1208EDE4FDFC7FD8FE1208EDE4FDFC4C
:100495007F05FE1208EDE4FDFC7FD9FE1208EDE4B0
:1004A500FDFC7FF1FE1208EDE4FDFC7FDAFE12088B
:1004B500EDE4FDFC7F12FE1208EDE4FDFC7FDBFEA2
:1004C5001208EDE4FDFC7F30FE1208EDE4FDFC7F33
:1004D5008DFE1208EDE4FDFC7F14FE1208EDE4FD2F
:0704E500FC7FAFFE0208EDF1
:1005B900020731E493A3F8E493A34003F68001F220
:1005C90008DFF48029E493A3F85407240CC8C33343
:1005D900C4540F4420C8834004F456800146F6DF12
:1005E900E4800B01020408102040809009BBE47EDE
:1005F900019360BCA3FF543F30E509541FFEE49307
:10060900A360010ECF54C025E060A840B8E493A3CD
:10061900FAE493A3F8E493A3C8C582C8CAC583CAF8
:10062900F0A3C8C582C8CAC583CADFE9DEE780BEB0
:0109BF000037
:1004EC00EF8DF0A4A8F0CF8CF0A428CE8DF0A42E24
:0204FC00FE22DE
:1004FE00C2D5EC30E709B2D5E4C39DFDE49CFCEE19
:10050E0030E715B2D5E4C39FFFE49EFE120540C34B
:10051E00E49DFDE49CFC800312054030D507C3E446
:06052E009FFFE49EFE2287
:0C053400A42582F582E5F03583F58322D2
:100792009000211205957810EC4D4E4F70047CA507
:1007A2007DA5C3EC13FCED13FDEE13FEEF13FF501A
:1007B20010EC64CCFCED644CFDEE644EFEEF64CEB6
:1007C200FFD8DF9000211205A1EE547FFE22900097
:0D07D20021EEF0EFA3F0A374A5F0A3F02238
:10054000BC000BBE0029EF8DF084FFADF022E4CC9F
:10055000F875F008EF2FFFEE33FEEC33FCEE9DEC68
:10056000984005FCEE9DFE0FD5F0E9E4CEFD22EDAE
:10057000F8F5F0EE8420D21CFEADF075F008EF2FF8
:10058000FFED33FD4007985006D5F0F222C398FDE9
:050590000FD5F0EA2286
:0C059500E0FCA3E0FDA3E0FEA3E0FF22D9
:0C05A100ECF0A3EDF0A3EEF0A3EFF022CD
:00000001FF
