:030000000205BB3B
:0C05BB00787FE4F6D8FD75810702060287
:1006CD006079007D000000000000000000000000C7
:1006DD00000000000000000000000000000000000D
:1006ED0000000000000000000000000000000000FD
:1006FD0000000000000000000000000000000000ED
:10070D0000000000000000000000000000000000DC
:10071D0000000000000000000000000000000000CC
:10072D0000000000000000000000000000000000BC
:10073D00000000000000000000000000004100F675
:01074D0000AB
:100968007F0B120A4E9000F6EFF01204131208A241
:10097800120647E4FDFF1202EF7F0A7E001209C942
:0509880012000380EEE7
:1007C1001208A27D07E4FF1208D9E49000FBF09023
:1007D10000FBE0C3947874809480503F120A587FE4
:1007E10078120912120A1F7F40120912120A1FC23F
:1007F100B7E4FFEFC39408748094805009D2B6D255
:10080100B7C2B70F80ED120A1F120A617F017E0085
:0B0811001209C99000FBE004F080B465
:01081C0022B9
:10074F00E4FFFEE4FDFCED4C6010EF4E600CEF6437
:10075F000A4E6006ED640A4C702190007D75F00B17
:10076F00EF120542EE75F00BA42583F583E5822D7C
:10077F00F582E5833CF583E4F0802090007D75F0F1
:10078F000BEF120542EE75F00BA42583F583E5827E
:10079F002DF582E5833CF5837401F00DBD00010C4E
:1007AF00ED640B4C70A00FBF00010EEF640B4E7089
:0107BF0092A7
:0107C0002216
:0A0A4E00EF54077002FF227F01221F
:0802EF00900000EFF0A3EDF018
:1002F700E4900004F0A3F09000F6E0FF3395E0FEF1
:10030700EF2401FFE43EFE900004E0FCA3E0FDC300
:100317009FEE6480F8EC648098400302041290001A
:1003270000E0FFAE05A3E02EFD1208D9E49000021D
:10033700F0A3F0120A587F78120912120A1F7F40A1
:10034700120912120A1FC2B7E4FDFC900004E0FE76
:10035700A3E07803C333CE33CED8F92407FFE43EB6
:10036700FEC3EF9DFFEE9CFEC3EF940BEE648094FB
:1003770080504B900004E0FEA3E07803C333CE33F4
:10038700CED8F9C39DFFEE9CFE900002E0FAA3E0F1
:1003970090008475F00B120542EA75F00BA42583D3
:1003A700F583E5822FF582E5833EF583E0FF3395FC
:1003B700E0FEEF4E7004D2B68006C2B68002C2B627
:1003C700D2B7C2B70DBD00010CED64084C60030243
:1003D7000352120A1F120A61900003E004F070062C
:1003E700900002E004F0C3900003E0940B90000239
:1003F700E064809480500302033A900005E004F023
:0B0407007006900004E004F00202FE0A
:0104120022C7
:10064700E4900000F0A3F0E4900002F0A3F0120899
:100657001D7C007D0212050CAF05900002E0FCA393
:10066700E0FD900000E0FAA3E090007D75F00B122A
:100677000542EA75F00BA42583F583E5822DF58203
:10068700E5833CF583EFF0900003E004F0700690FB
:100697000002E004F0C3900003E0940B900002E036
:1006A7006480948040A8900001E004F070069000F8
:1006B70000E004F0C3900001E0940B900000E064B8
:0506C7008094804082D8
:0106CC00220B
:100003007F017E00E490007BF0A3F090007BE0FC96
:10001300A3E0FD90007275F00BEF120542EE75F050
:100023000BA42583F583E5822DF582E5833CF583D7
:10003300E0FD3395E0FC90007BE0FAA3E0FB900049
:100043007175F00BEF120542EE75F00BA42583F5E5
:1000530083E5822BF582E5833AF583E0FB3395E074
:10006300FAEB2DFDEA3CFC90007BE0FAA3E0FB9069
:10007300007375F00BEF120542EE75F00BA42583A8
:10008300F583E5822BF582E5833AF583E0FB33952F
:10009300E0FAED2BFDEC3AFC90007BE0FAA3E0FBE9
:1000A30090007C75F00BEF120542EE75F00BA42562
:1000B30083F583E5822BF582E5833AF583E0FB3311
:1000C30095E0FAED2BFDEC3AFC90007BE0FAA3E01F
:1000D300FB90007E75F00BEF120542EE75F00BA45A
:1000E3002583F583E5822BF582E5833AF583E0FBEF
:1000F3003395E0FAED2BFDEC3AFC90007BE0FAA39C
:10010300E0FB90008775F00BEF120542EE75F00BE4
:10011300A42583F583E5822BF582E5833AF583E015
:10012300FB3395E0FAED2BFDEC3AFC90007BE0FA13
:10013300A3E0FB90008875F00BEF120542EE75F01B
:100143000BA42583F583E5822BF582E5833AF583BA
:10015300E0FB3395E0FAED2BFDEC3AFC90007BE0FD
:10016300FAA3E0FB90008975F00BEF120542EE75E0
:10017300F00BA42583F583E5822BF582E5833AF51D
:1001830083E0FB3395E0FAED2BFDEC3AFC9000792C
:10019300F0A3EDF064034C7029A3E0FCA3E0FD9011
:1001A300000075F00BEF120542EE75F00BA42583EA
:1001B300F583E5822DF582E5833CF5837401F00236
:1001C3000245900079E07004A3E0640290007B7024
:1001D3004DE0FCA3E0FD90007D75F00BEF120542AE
:1001E300EE75F00BA42583F583E5822DF582E58377
:1001F3003CF583E0FD90007BE0FAA3E0FB90000078
:1002030075F00BEF120542EE75F00BA42583F58311
:10021300E5822BF582E5833AF583EDF08024E0FC5B
:10022300A3E0FD90000075F00BEF120542EE75F0B0
:100233000BA42583F583E5822DF582E5833CF583C5
:10024300E4F090007CE004F0700690007BE004F0A2
:1002530090007BE07004A3E0640B600302000E0FC8
:10026300BF00010EEF640B4E60030200077E007FA8
:1002730001E490007BF0A3F090007BE0FCA3E0FDA1
:10028300C3940BEC64809480505690000075F00B7F
:10029300EF120542EE75F00BA42583F583E5822D5D
:1002A300F582E5833CF583E0FD90007BE0FAA3E073
:1002B300FB90007D75F00BEF120542EE75F00BA479
:1002C3002583F583E5822BF582E5833AF583EDF00B
:1002D30090007CE004F070A090007BE004F0809834
:0B02E3000FBF00010EEF640B4E708691
:0102EE0022ED
:1009C900EF4E60157D087C07ED1DAA0470011C4AD5
:0909D90070F6EF1F70EA1E80E7C2
:0109E20022F2
:090A5800D2B7D2B6C2B6C2B72271
:070A6100D2B7C2B6D2B622E3
:0B0A1400120912120A1FAF041209128F
:050A1F00D2B7C2B722AE
:07090B00AC07120A587F78C7
:10091200C2B7E4FEEEC3940874809480501AAD0707
:10092200ED548064807004D2B68002C2B6EF25E036
:08093200FFD2B7C2B70E80DC52
:01093A00229A
:0E0A240012090B120A1FE4FF120A14020A61E3
:0E0A320012090B120A1F7F40120A14020A61F9
:10093B00EF24B0FFEE33FEE4FDFC1209577F02E417
:0C094B00FDFCFE1209577F10E4FDFCFECD
:10095700AB07AA06ED4C6003020A32AF03120A2462
:01096700226D
:10098D00D3EF9400EE940040147D657C18ED1D703E
:0D099D00011CED4C70F7EF1F70E61E80E3AB
:0109AA00222A
:1009E300EF1FAA0670011E4A600FE4FDEDC3947B5E
:0909F3007480948050EA0D80F339
:0109FC0022D8
:1008D900A907ED24B0FFE433FEE4FDFC120957E952
:1008E900240254F0C4540F7E004410FFE4FDFC12AE
:1008F9000957E92402FF7E00EF540FFFE4FDFC02D3
:0209090009578C
:1009FD007F8D120953E4FDFC7F14FE120957E4FDAF
:070A0D00FC7FAFFE02095758
:0E0A40007F8D12094AE4FDFC7FAEFE020957CD
:1008A200E4F9E9FF7E00C394087480948050271213
:1008B200093BE4900000F0900000E0C39480748053
:1008C2009480500F7D017C00E4FFFE120957E00482
:0608D200F080E40980CC77
:0108D80022FD
:10086A00E4F9E9FF7E00C39408748094805028124A
:10087A00093BE49000FCF09000FCE0C39480748093
:10088A00948050107D017C007F017E00120957E0A0
:07089A0004F080E30980CBAC
:0108A1002234
:0709AB009000FDEFF0A9052B
:1009B2007F017E00AD0119ED600C9000FDE0FD7C31
:0609C200001204FA80EEB1
:0109C800220C
:10041300E4FDFC7FAEFE120957E4FDFCFF12094D1B
:10042300E4FDFC7F40FE120957E4FDFC7FB0FE12A1
:100433000957E4FDFC7F81FE120957E4FDFC7FFFB1
:10044300FE120957E4FDFC7FA1FE120957E4FDFCEF
:100453007FA6FE120957E4FDFC7FA8FE120957E4AC
:10046300FDFC7F3FFE120957E4FDFC7FC8FE120925
:1004730057E4FDFC7FD3FE120957E4FDFCFFFE1297
:100483000957E4FDFC7FD5FE120957E4FDFC7F808C
:10049300FE120957E4FDFC7FD8FE120957E4FDFC68
:1004A3007F05FE120957E4FDFC7FD9FE120957E4CC
:1004B300FDFC7FF1FE120957E4FDFC7FDAFE120911
:1004C30057E4FDFC7F12FE120957E4FDFC7FDBFEBF
:1004D300120957E4FDFC7F30FE120957E4FDFC7F4F
:1004E3008DFE120957E4FDFC7F14FE120957E4FD4B
:0704F300FC7FAFFE02095778
:1005C700020968E493A3F8E493A34003F68001F2D9
:1005D70008DFF48029E493A3F85407240CC8C33335
:1005E700C4540F4420C8834004F456800146F6DF04
:1005F700E4800B01020408102040809006CDE47EC1
:10060700019360BCA3FF543F30E509541FFEE493F8
:10061700A360010ECF54C025E060A840B8E493A3BF
:10062700FAE493A3F8E493A3C8C582C8CAC583CAEA
:10063700F0A3C8C582C8CAC583CADFE9DEE780BEA2
:01074E0000AA
:1004FA00EF8DF0A4A8F0CF8CF0A428CE8DF0A42E16
:02050A00FE22CF
:10050C00C2D5EC30E709B2D5E4C39DFDE49CFCEE0A
:10051C0030E715B2D5E4C39FFFE49EFE12054EC32F
:10052C00E49DFDE49CFC800312054E30D507C3E42A
:06053C009FFFE49EFE2279
:0C054200A42582F582E5F03583F58322C4
:10081D009000F71205A37810EC4D4E4F70047CA597
:10082D007DA5C3EC13FCED13FDEE13FEEF13FF508E
:10083D0010EC64CCFCED644CFDEE644EFEEF64CE2A
:10084D00FFD8DF9000F71205AFEE547FFE22900027
:0D085D00F7EEF0EFA3F0A374A5F0A3F022D6
:10054E00BC000BBE0029EF8DF084FFADF022E4CC91
:10055E00F875F008EF2FFFEE33FEEC33FCEE9DEC5A
:10056E00984005FCEE9DFE0FD5F0E9E4CEFD22EDA0
:10057E00F8F5F0EE8420D21CFEADF075F008EF2FEA
:10058E00FFED33FD4007985006D5F0F222C398FDDB
:05059E000FD5F0EA2278
:0C05A300E0FCA3E0FDA3E0FEA3E0FF22CB
:0C05AF00ECF0A3EDF0A3EEF0A3EFF022BF
:00000001FF
